{
  "contractName": "EthPassport",
  "abi": [
    {
      "constant": false,
      "inputs": [],
      "name": "unpause",
      "outputs": [],
      "payable": false,
      "stateMutability": "nonpayable",
      "type": "function"
    },
    {
      "constant": true,
      "inputs": [],
      "name": "paused",
      "outputs": [
        {
          "name": "",
          "type": "bool"
        }
      ],
      "payable": false,
      "stateMutability": "view",
      "type": "function"
    },
    {
      "constant": false,
      "inputs": [],
      "name": "renounceOwnership",
      "outputs": [],
      "payable": false,
      "stateMutability": "nonpayable",
      "type": "function"
    },
    {
      "constant": false,
      "inputs": [],
      "name": "pause",
      "outputs": [],
      "payable": false,
      "stateMutability": "nonpayable",
      "type": "function"
    },
    {
      "constant": true,
      "inputs": [],
      "name": "owner",
      "outputs": [
        {
          "name": "",
          "type": "address"
        }
      ],
      "payable": false,
      "stateMutability": "view",
      "type": "function"
    },
    {
      "constant": false,
      "inputs": [
        {
          "name": "_newOwner",
          "type": "address"
        }
      ],
      "name": "transferOwnership",
      "outputs": [],
      "payable": false,
      "stateMutability": "nonpayable",
      "type": "function"
    },
    {
      "anonymous": false,
      "inputs": [],
      "name": "Pause",
      "type": "event"
    },
    {
      "anonymous": false,
      "inputs": [],
      "name": "Unpause",
      "type": "event"
    },
    {
      "anonymous": false,
      "inputs": [
        {
          "indexed": true,
          "name": "previousOwner",
          "type": "address"
        }
      ],
      "name": "OwnershipRenounced",
      "type": "event"
    },
    {
      "anonymous": false,
      "inputs": [
        {
          "indexed": true,
          "name": "previousOwner",
          "type": "address"
        },
        {
          "indexed": true,
          "name": "newOwner",
          "type": "address"
        }
      ],
      "name": "OwnershipTransferred",
      "type": "event"
    },
    {
      "constant": true,
      "inputs": [],
      "name": "isSet",
      "outputs": [
        {
          "name": "",
          "type": "bool"
        }
      ],
      "payable": false,
      "stateMutability": "view",
      "type": "function"
    },
    {
      "constant": true,
      "inputs": [],
      "name": "myID",
      "outputs": [
        {
          "name": "_IdN",
          "type": "uint256"
        },
        {
          "name": "_FN",
          "type": "string"
        },
        {
          "name": "_LN",
          "type": "string"
        },
        {
          "name": "_citizenship",
          "type": "string"
        }
      ],
      "payable": false,
      "stateMutability": "view",
      "type": "function"
    },
    {
      "constant": true,
      "inputs": [],
      "name": "myPassport",
      "outputs": [
        {
          "name": "_IdN",
          "type": "uint256"
        },
        {
          "name": "_FN",
          "type": "string"
        },
        {
          "name": "_LN",
          "type": "string"
        },
        {
          "name": "_BD",
          "type": "string"
        },
        {
          "name": "_citizenship",
          "type": "string"
        },
        {
          "name": "_CountryOfBirth",
          "type": "string"
        }
      ],
      "payable": false,
      "stateMutability": "view",
      "type": "function"
    },
    {
      "constant": false,
      "inputs": [
        {
          "name": "FN",
          "type": "string"
        },
        {
          "name": "LN",
          "type": "string"
        },
        {
          "name": "BD",
          "type": "string"
        },
        {
          "name": "citizenship",
          "type": "string"
        },
        {
          "name": "CountryOfBirth",
          "type": "string"
        }
      ],
      "name": "enroll",
      "outputs": [
        {
          "name": "",
          "type": "bool"
        }
      ],
      "payable": false,
      "stateMutability": "nonpayable",
      "type": "function"
    },
    {
      "constant": false,
      "inputs": [
        {
          "name": "FN",
          "type": "string"
        },
        {
          "name": "LN",
          "type": "string"
        },
        {
          "name": "BD",
          "type": "string"
        },
        {
          "name": "citizenship",
          "type": "string"
        },
        {
          "name": "CountryOfBirth",
          "type": "string"
        }
      ],
      "name": "update",
      "outputs": [
        {
          "name": "",
          "type": "bool"
        }
      ],
      "payable": false,
      "stateMutability": "nonpayable",
      "type": "function"
    },
    {
      "constant": true,
      "inputs": [
        {
          "name": "Id",
          "type": "uint256"
        },
        {
          "name": "FN",
          "type": "string"
        },
        {
          "name": "LN",
          "type": "string"
        }
      ],
      "name": "auth",
      "outputs": [
        {
          "name": "",
          "type": "bool"
        }
      ],
      "payable": false,
      "stateMutability": "view",
      "type": "function"
    }
  ],
  "bytecode": "0x608060405260008060146101000a81548160ff0219169083151502179055506000600155336000806101000a81548173ffffffffffffffffffffffffffffffffffffffff021916908373ffffffffffffffffffffffffffffffffffffffff160217905550611dbe806100726000396000f3006080604052600436106100ba576000357c0100000000000000000000000000000000000000000000000000000000900463ffffffff1680630fd827a7146100bf5780632dca76c1146102585780633c9714a5146103f15780633f4ba83a146104c25780635c975abb146104d957806367fc117c14610508578063715018a61461074f5780637a9b55b7146107665780638456cb59146108d55780638da5cb5b146108ec578063c65fb38014610943578063f2fde38b14610972575b600080fd5b3480156100cb57600080fd5b5061023e600480360381019080803590602001908201803590602001908080601f0160208091040260200160405190810160405280939291908181526020018383808284378201915050505050509192919290803590602001908201803590602001908080601f0160208091040260200160405190810160405280939291908181526020018383808284378201915050505050509192919290803590602001908201803590602001908080601f0160208091040260200160405190810160405280939291908181526020018383808284378201915050505050509192919290803590602001908201803590602001908080601f0160208091040260200160405190810160405280939291908181526020018383808284378201915050505050509192919290803590602001908201803590602001908080601f01602080910402602001604051908101604052809392919081815260200183838082843782019150505050505091929192905050506109b5565b604051808215151515815260200191505060405180910390f35b34801561026457600080fd5b506103d7600480360381019080803590602001908201803590602001908080601f0160208091040260200160405190810160405280939291908181526020018383808284378201915050505050509192919290803590602001908201803590602001908080601f0160208091040260200160405190810160405280939291908181526020018383808284378201915050505050509192919290803590602001908201803590602001908080601f0160208091040260200160405190810160405280939291908181526020018383808284378201915050505050509192919290803590602001908201803590602001908080601f0160208091040260200160405190810160405280939291908181526020018383808284378201915050505050509192919290803590602001908201803590602001908080601f0160208091040260200160405190810160405280939291908181526020018383808284378201915050505050509192919290505050610a7a565b604051808215151515815260200191505060405180910390f35b3480156103fd57600080fd5b506104a860048036038101908080359060200190929190803590602001908201803590602001908080601f0160208091040260200160405190810160405280939291908181526020018383808284378201915050505050509192919290803590602001908201803590602001908080601f0160208091040260200160405190810160405280939291908181526020018383808284378201915050505050509192919290505050610ae4565b604051808215151515815260200191505060405180910390f35b3480156104ce57600080fd5b506104d7610d19565b005b3480156104e557600080fd5b506104ee610dd7565b604051808215151515815260200191505060405180910390f35b34801561051457600080fd5b5061051d610dea565b60405180878152602001806020018060200180602001806020018060200186810386528b818151815260200191508051906020019080838360005b83811015610573578082015181840152602081019050610558565b50505050905090810190601f1680156105a05780820380516001836020036101000a031916815260200191505b5086810385528a818151815260200191508051906020019080838360005b838110156105d95780820151818401526020810190506105be565b50505050905090810190601f1680156106065780820380516001836020036101000a031916815260200191505b50868103845289818151815260200191508051906020019080838360005b8381101561063f578082015181840152602081019050610624565b50505050905090810190601f16801561066c5780820380516001836020036101000a031916815260200191505b50868103835288818151815260200191508051906020019080838360005b838110156106a557808201518184015260208101905061068a565b50505050905090810190601f1680156106d25780820380516001836020036101000a031916815260200191505b50868103825287818151815260200191508051906020019080838360005b8381101561070b5780820151818401526020810190506106f0565b50505050905090810190601f1680156107385780820380516001836020036101000a031916815260200191505b509b50505050505050505050505060405180910390f35b34801561075b57600080fd5b506107646112ff565b005b34801561077257600080fd5b5061077b611401565b60405180858152602001806020018060200180602001848103845287818151815260200191508051906020019080838360005b838110156107c95780820151818401526020810190506107ae565b50505050905090810190601f1680156107f65780820380516001836020036101000a031916815260200191505b50848103835286818151815260200191508051906020019080838360005b8381101561082f578082015181840152602081019050610814565b50505050905090810190601f16801561085c5780820380516001836020036101000a031916815260200191505b50848103825285818151815260200191508051906020019080838360005b8381101561089557808201518184015260208101905061087a565b50505050905090810190601f1680156108c25780820380516001836020036101000a031916815260200191505b5097505050505050505060405180910390f35b3480156108e157600080fd5b506108ea611751565b005b3480156108f857600080fd5b50610901611811565b604051808273ffffffffffffffffffffffffffffffffffffffff1673ffffffffffffffffffffffffffffffffffffffff16815260200191505060405180910390f35b34801561094f57600080fd5b50610958611836565b604051808215151515815260200191505060405180910390f35b34801561097e57600080fd5b506109b3600480360381019080803573ffffffffffffffffffffffffffffffffffffffff16906020019092919050505061189e565b005b60006109c48686868686611905565b6001805401600260003373ffffffffffffffffffffffffffffffffffffffff1673ffffffffffffffffffffffffffffffffffffffff1681526020019081526020016000206000018190555060018060008282540192505081905550600260003373ffffffffffffffffffffffffffffffffffffffff1673ffffffffffffffffffffffffffffffffffffffff16815260200190815260200160002060060160009054906101000a900460ff16905095945050505050565b6000610a898686868686611905565b600260003373ffffffffffffffffffffffffffffffffffffffff1673ffffffffffffffffffffffffffffffffffffffff16815260200190815260200160002060060160009054906101000a900460ff16905095945050505050565b6000610bca600260003373ffffffffffffffffffffffffffffffffffffffff1673ffffffffffffffffffffffffffffffffffffffff1681526020019081526020016000206001018054600181600116156101000203166002900480601f016020809104026020016040519081016040528092919081815260200182805460018160011615610100020316600290048015610bbf5780601f10610b9457610100808354040283529160200191610bbf565b820191906000526020600020905b815481529060010190602001808311610ba257829003601f168201915b505050505084611b1a565b8015610cb65750610cb5600260003373ffffffffffffffffffffffffffffffffffffffff1673ffffffffffffffffffffffffffffffffffffffff1681526020019081526020016000206002018054600181600116156101000203166002900480601f016020809104026020016040519081016040528092919081815260200182805460018160011615610100020316600290048015610caa5780601f10610c7f57610100808354040283529160200191610caa565b820191906000526020600020905b815481529060010190602001808311610c8d57829003601f168201915b505050505083611b1a565b5b8015610d03575083600260003373ffffffffffffffffffffffffffffffffffffffff1673ffffffffffffffffffffffffffffffffffffffff16815260200190815260200160002060000154145b1515610d0e57600080fd5b600190509392505050565b6000809054906101000a900473ffffffffffffffffffffffffffffffffffffffff1673ffffffffffffffffffffffffffffffffffffffff163373ffffffffffffffffffffffffffffffffffffffff16141515610d7457600080fd5b600060149054906101000a900460ff161515610d8f57600080fd5b60008060146101000a81548160ff0219169083151502179055507f7805862f689e2f13df9f062ff482ad3ad112aca9e0847911ed832e158c525b3360405160405180910390a1565b600060149054906101000a900460ff1681565b60006060806060806060600260003373ffffffffffffffffffffffffffffffffffffffff1673ffffffffffffffffffffffffffffffffffffffff16815260200190815260200160002060060160009054906101000a900460ff161515610e4f57600080fd5b600260003373ffffffffffffffffffffffffffffffffffffffff1673ffffffffffffffffffffffffffffffffffffffff168152602001908152602001600020600001549550600260003373ffffffffffffffffffffffffffffffffffffffff1673ffffffffffffffffffffffffffffffffffffffff1681526020019081526020016000206001018054600181600116156101000203166002900480601f016020809104026020016040519081016040528092919081815260200182805460018160011615610100020316600290048015610f6a5780601f10610f3f57610100808354040283529160200191610f6a565b820191906000526020600020905b815481529060010190602001808311610f4d57829003601f168201915b50505050509450600260003373ffffffffffffffffffffffffffffffffffffffff1673ffffffffffffffffffffffffffffffffffffffff1681526020019081526020016000206002018054600181600116156101000203166002900480601f0160208091040260200160405190810160405280929190818152602001828054600181600116156101000203166002900480156110475780601f1061101c57610100808354040283529160200191611047565b820191906000526020600020905b81548152906001019060200180831161102a57829003601f168201915b50505050509350600260003373ffffffffffffffffffffffffffffffffffffffff1673ffffffffffffffffffffffffffffffffffffffff1681526020019081526020016000206003018054600181600116156101000203166002900480601f0160208091040260200160405190810160405280929190818152602001828054600181600116156101000203166002900480156111245780601f106110f957610100808354040283529160200191611124565b820191906000526020600020905b81548152906001019060200180831161110757829003601f168201915b50505050509250600260003373ffffffffffffffffffffffffffffffffffffffff1673ffffffffffffffffffffffffffffffffffffffff1681526020019081526020016000206004018054600181600116156101000203166002900480601f0160208091040260200160405190810160405280929190818152602001828054600181600116156101000203166002900480156112015780601f106111d657610100808354040283529160200191611201565b820191906000526020600020905b8154815290600101906020018083116111e457829003601f168201915b50505050509150600260003373ffffffffffffffffffffffffffffffffffffffff1673ffffffffffffffffffffffffffffffffffffffff1681526020019081526020016000206005018054600181600116156101000203166002900480601f0160208091040260200160405190810160405280929190818152602001828054600181600116156101000203166002900480156112de5780601f106112b3576101008083540402835291602001916112de565b820191906000526020600020905b8154815290600101906020018083116112c157829003601f168201915b50505050509050858585858585955095509550955095509550909192939495565b6000809054906101000a900473ffffffffffffffffffffffffffffffffffffffff1673ffffffffffffffffffffffffffffffffffffffff163373ffffffffffffffffffffffffffffffffffffffff1614151561135a57600080fd5b6000809054906101000a900473ffffffffffffffffffffffffffffffffffffffff1673ffffffffffffffffffffffffffffffffffffffff167ff8df31144d9c2f0f6b59d69b8b98abd5459d07f2742c4df920b25aae33c6482060405160405180910390a260008060006101000a81548173ffffffffffffffffffffffffffffffffffffffff021916908373ffffffffffffffffffffffffffffffffffffffff160217905550565b60006060806060600260003373ffffffffffffffffffffffffffffffffffffffff1673ffffffffffffffffffffffffffffffffffffffff16815260200190815260200160002060060160009054906101000a900460ff16151561146357600080fd5b600260003373ffffffffffffffffffffffffffffffffffffffff1673ffffffffffffffffffffffffffffffffffffffff1681526020019081526020016000206001018054600181600116156101000203166002900480601f0160208091040260200160405190810160405280929190818152602001828054600181600116156101000203166002900480156115395780601f1061150e57610100808354040283529160200191611539565b820191906000526020600020905b81548152906001019060200180831161151c57829003601f168201915b50505050509250600260003373ffffffffffffffffffffffffffffffffffffffff1673ffffffffffffffffffffffffffffffffffffffff1681526020019081526020016000206002018054600181600116156101000203166002900480601f0160208091040260200160405190810160405280929190818152602001828054600181600116156101000203166002900480156116165780601f106115eb57610100808354040283529160200191611616565b820191906000526020600020905b8154815290600101906020018083116115f957829003601f168201915b50505050509150600260003373ffffffffffffffffffffffffffffffffffffffff1673ffffffffffffffffffffffffffffffffffffffff168152602001908152602001600020600001549350600260003373ffffffffffffffffffffffffffffffffffffffff1673ffffffffffffffffffffffffffffffffffffffff1681526020019081526020016000206004018054600181600116156101000203166002900480601f0160208091040260200160405190810160405280929190818152602001828054600181600116156101000203166002900480156117385780601f1061170d57610100808354040283529160200191611738565b820191906000526020600020905b81548152906001019060200180831161171b57829003601f168201915b5050505050905083838383935093509350935090919293565b6000809054906101000a900473ffffffffffffffffffffffffffffffffffffffff1673ffffffffffffffffffffffffffffffffffffffff163373ffffffffffffffffffffffffffffffffffffffff161415156117ac57600080fd5b600060149054906101000a900460ff161515156117c857600080fd5b6001600060146101000a81548160ff0219169083151502179055507f6985a02210a168e66602d3235cb6db0e70f92b3ba4d376a33c0f3d9434bff62560405160405180910390a1565b6000809054906101000a900473ffffffffffffffffffffffffffffffffffffffff1681565b6000600260003373ffffffffffffffffffffffffffffffffffffffff1673ffffffffffffffffffffffffffffffffffffffff16815260200190815260200160002060060160009054906101000a900460ff1615611896576001905061189b565b600090505b90565b6000809054906101000a900473ffffffffffffffffffffffffffffffffffffffff1673ffffffffffffffffffffffffffffffffffffffff163373ffffffffffffffffffffffffffffffffffffffff161415156118f957600080fd5b61190281611bf3565b50565b84600260003373ffffffffffffffffffffffffffffffffffffffff1673ffffffffffffffffffffffffffffffffffffffff168152602001908152602001600020600101908051906020019061195b929190611ced565b5083600260003373ffffffffffffffffffffffffffffffffffffffff1673ffffffffffffffffffffffffffffffffffffffff16815260200190815260200160002060020190805190602001906119b2929190611ced565b5082600260003373ffffffffffffffffffffffffffffffffffffffff1673ffffffffffffffffffffffffffffffffffffffff1681526020019081526020016000206003019080519060200190611a09929190611ced565b5081600260003373ffffffffffffffffffffffffffffffffffffffff1673ffffffffffffffffffffffffffffffffffffffff1681526020019081526020016000206004019080519060200190611a60929190611ced565b5080600260003373ffffffffffffffffffffffffffffffffffffffff1673ffffffffffffffffffffffffffffffffffffffff1681526020019081526020016000206005019080519060200190611ab7929190611ced565b506001600260003373ffffffffffffffffffffffffffffffffffffffff1673ffffffffffffffffffffffffffffffffffffffff16815260200190815260200160002060060160006101000a81548160ff0219169083151502179055505050505050565b6000816040518082805190602001908083835b602083101515611b525780518252602082019150602081019050602083039250611b2d565b6001836020036101000a038019825116818451168082178552505050505050905001915050604051809103902060001916836040518082805190602001908083835b602083101515611bb95780518252602082019150602081019050602083039250611b94565b6001836020036101000a03801982511681845116808217855250505050505090500191505060405180910390206000191614905092915050565b600073ffffffffffffffffffffffffffffffffffffffff168173ffffffffffffffffffffffffffffffffffffffff1614151515611c2f57600080fd5b8073ffffffffffffffffffffffffffffffffffffffff166000809054906101000a900473ffffffffffffffffffffffffffffffffffffffff1673ffffffffffffffffffffffffffffffffffffffff167f8be0079c531659141344cd1fd0a4f28419497f9722a3daafe3b4186f6b6457e060405160405180910390a3806000806101000a81548173ffffffffffffffffffffffffffffffffffffffff021916908373ffffffffffffffffffffffffffffffffffffffff16021790555050565b828054600181600116156101000203166002900490600052602060002090601f016020900481019282601f10611d2e57805160ff1916838001178555611d5c565b82800160010185558215611d5c579182015b82811115611d5b578251825591602001919060010190611d40565b5b509050611d699190611d6d565b5090565b611d8f91905b80821115611d8b576000816000905550600101611d73565b5090565b905600a165627a7a72305820084b1c58b2fb150b74ad666b3ed4e2b655598adcb8ac99d440ca92019bfc71bc0029",
  "source": "pragma solidity ^0.4.23;\n\nimport 'openzeppelin-solidity/contracts/lifecycle/Pausable.sol';\nimport \"openzeppelin-solidity/contracts/ownership/Ownable.sol\";\n\n\n\n/* \n@title EthPassport\n@author Muhammed Nagy <me@muhnagy.com>\n@description Universal idientity on the ethereum blockchain!  \n*/\n\ncontract EthPassport is Ownable, Pausable {\n    struct Passport {uint Id; string FN; string LN; string BD; string citizenship; string  CountryOfBirth; bool isSet;}\n    uint count =  0;\n    mapping  (address => Passport) passports ;\n    \n    modifier OnlyOwner() {require( passports[msg.sender].isSet) ; _;}\n    \n    \n    function compareStrings (string a, string b) private view returns (bool){\n        /** Compare two strings */\n       return keccak256(a) == keccak256(b);\n    }\n\n   function  isSet() public view returns(bool) {\n           if (passports[msg.sender].isSet) {\n               return true;\n           } else {\n               return false;\n           }\n   }\n    function  myID() public view OnlyOwner returns(uint _IdN , string _FN, string _LN, string _citizenship) {\n            /** Get User's ID info */\n           _FN = passports[msg.sender].FN ;\n           _LN = passports[msg.sender].LN ;\n           _IdN = passports[msg.sender].Id;\n           _citizenship = passports[msg.sender].citizenship;\n           return (_IdN, _FN, _LN, _citizenship);\n           \n    }\n\n       \n    function  myPassport() public view OnlyOwner returns(uint _IdN, string _FN, string _LN, string _BD, string _citizenship, string  _CountryOfBirth) {\n            /** Get User's passport  info */\n           _IdN = passports[msg.sender].Id;\n           _FN = passports[msg.sender].FN ;\n           _LN = passports[msg.sender].LN ;\n           _BD = passports[msg.sender].BD ;\n           _citizenship = passports[msg.sender].citizenship;\n           _CountryOfBirth = passports[msg.sender].CountryOfBirth ;\n           return ( _IdN, _FN, _LN,  _BD, _citizenship, _CountryOfBirth);\n           \n    }\n    \n    \n    function  change(string FN, string LN, string BD, string citizenship, string  CountryOfBirth) private  {\n        /** main functionn used to make/update passport info */\n        passports[msg.sender].FN = FN;\n        passports[msg.sender].LN = LN;\n        passports[msg.sender].BD = BD;\n        passports[msg.sender].citizenship = citizenship;\n        passports[msg.sender].CountryOfBirth = CountryOfBirth;\n        passports[msg.sender].isSet = true;\n    }\n    \n    function enroll(string FN, string LN, string BD, string citizenship, string  CountryOfBirth) public returns (bool) {\n        /** Add user's into to the passports mappinng */\n        change(FN, LN, BD, citizenship,CountryOfBirth);\n        passports[msg.sender].Id = count + 1;\n        count += 1;\n        return passports[msg.sender].isSet;\n    }\n    \n    function update(string FN, string LN, string BD, string citizenship, string  CountryOfBirth) public returns (bool) {\n        /** updates user's info */\n        change(FN, LN, BD, citizenship,CountryOfBirth);\n        return  passports[msg.sender].isSet;\n    }\n    \n    function auth(uint Id, string FN, string LN) view public returns (bool) {\n        /** authenticate user and match his info */\n        require(compareStrings(passports[msg.sender].FN,FN) && compareStrings(passports[msg.sender].LN,LN) &&  passports[msg.sender].Id == Id);\n        return true;\n    }\n}",
  "sourcePath": "/home/nagy/code/thesis-identity-ethereum-poc/contracts/EthPassport.sol",
  "compiler": {
    "name": "solc",
    "version": "0.4.26+commit.4563c3fc.Emscripten.clang"
  },
  "schemaVersion": "3.4.3",
  "updatedAt": "2021-11-16T23:17:29.001Z",
  "networkType": "ethereum",
  "devdoc": {
    "methods": {
      "pause()": {
        "details": "called by the owner to pause, triggers stopped state"
      },
      "renounceOwnership()": {
        "details": "Allows the current owner to relinquish control of the contract."
      },
      "transferOwnership(address)": {
        "details": "Allows the current owner to transfer control of the contract to a newOwner.",
        "params": {
          "_newOwner": "The address to transfer ownership to."
        }
      },
      "unpause()": {
        "details": "called by the owner to unpause, returns to normal state"
      }
    }
  },
  "userdoc": {
    "methods": {
      "renounceOwnership()": {
        "notice": "Renouncing to ownership will leave the contract without an owner. It will not be possible to call the functions with the `onlyOwner` modifier anymore."
      }
    }
  }
}